{
  "_format": "hh-sol-artifact-1",
  "contractName": "Domains",
  "sourceName": "contracts/Domains.sol",
  "abi": [
    {
      "inputs": [
        {
          "internalType": "string",
          "name": "_tld",
          "type": "string"
        }
      ],
      "stateMutability": "payable",
      "type": "constructor"
    },
    {
      "inputs": [],
      "name": "AlreadyRegistered",
      "type": "error"
    },
    {
      "inputs": [
        {
          "internalType": "string",
          "name": "name",
          "type": "string"
        }
      ],
      "name": "InvalidName",
      "type": "error"
    },
    {
      "inputs": [],
      "name": "Unauthorized",
      "type": "error"
    },
    {
      "anonymous": false,
      "inputs": [
        {
          "indexed": true,
          "internalType": "address",
          "name": "owner",
          "type": "address"
        },
        {
          "indexed": true,
          "internalType": "address",
          "name": "approved",
          "type": "address"
        },
        {
          "indexed": true,
          "internalType": "uint256",
          "name": "tokenId",
          "type": "uint256"
        }
      ],
      "name": "Approval",
      "type": "event"
    },
    {
      "anonymous": false,
      "inputs": [
        {
          "indexed": true,
          "internalType": "address",
          "name": "owner",
          "type": "address"
        },
        {
          "indexed": true,
          "internalType": "address",
          "name": "operator",
          "type": "address"
        },
        {
          "indexed": false,
          "internalType": "bool",
          "name": "approved",
          "type": "bool"
        }
      ],
      "name": "ApprovalForAll",
      "type": "event"
    },
    {
      "anonymous": false,
      "inputs": [
        {
          "indexed": true,
          "internalType": "address",
          "name": "from",
          "type": "address"
        },
        {
          "indexed": true,
          "internalType": "address",
          "name": "to",
          "type": "address"
        },
        {
          "indexed": true,
          "internalType": "uint256",
          "name": "tokenId",
          "type": "uint256"
        }
      ],
      "name": "Transfer",
      "type": "event"
    },
    {
      "inputs": [
        {
          "internalType": "address",
          "name": "to",
          "type": "address"
        },
        {
          "internalType": "uint256",
          "name": "tokenId",
          "type": "uint256"
        }
      ],
      "name": "approve",
      "outputs": [],
      "stateMutability": "nonpayable",
      "type": "function"
    },
    {
      "inputs": [
        {
          "internalType": "address",
          "name": "owner",
          "type": "address"
        }
      ],
      "name": "balanceOf",
      "outputs": [
        {
          "internalType": "uint256",
          "name": "",
          "type": "uint256"
        }
      ],
      "stateMutability": "view",
      "type": "function"
    },
    {
      "inputs": [
        {
          "internalType": "string",
          "name": "",
          "type": "string"
        }
      ],
      "name": "domains",
      "outputs": [
        {
          "internalType": "address",
          "name": "",
          "type": "address"
        }
      ],
      "stateMutability": "view",
      "type": "function"
    },
    {
      "inputs": [],
      "name": "getAllNames",
      "outputs": [
        {
          "internalType": "string[]",
          "name": "",
          "type": "string[]"
        }
      ],
      "stateMutability": "view",
      "type": "function"
    },
    {
      "inputs": [
        {
          "internalType": "uint256",
          "name": "tokenId",
          "type": "uint256"
        }
      ],
      "name": "getApproved",
      "outputs": [
        {
          "internalType": "address",
          "name": "",
          "type": "address"
        }
      ],
      "stateMutability": "view",
      "type": "function"
    },
    {
      "inputs": [
        {
          "internalType": "string",
          "name": "name",
          "type": "string"
        }
      ],
      "name": "getDomainOwnerAddress",
      "outputs": [
        {
          "internalType": "address",
          "name": "",
          "type": "address"
        }
      ],
      "stateMutability": "view",
      "type": "function"
    },
    {
      "inputs": [
        {
          "internalType": "string",
          "name": "name",
          "type": "string"
        }
      ],
      "name": "getRecord",
      "outputs": [
        {
          "internalType": "string",
          "name": "",
          "type": "string"
        }
      ],
      "stateMutability": "view",
      "type": "function"
    },
    {
      "inputs": [
        {
          "internalType": "address",
          "name": "owner",
          "type": "address"
        },
        {
          "internalType": "address",
          "name": "operator",
          "type": "address"
        }
      ],
      "name": "isApprovedForAll",
      "outputs": [
        {
          "internalType": "bool",
          "name": "",
          "type": "bool"
        }
      ],
      "stateMutability": "view",
      "type": "function"
    },
    {
      "inputs": [],
      "name": "isOwner",
      "outputs": [
        {
          "internalType": "bool",
          "name": "",
          "type": "bool"
        }
      ],
      "stateMutability": "view",
      "type": "function"
    },
    {
      "inputs": [],
      "name": "name",
      "outputs": [
        {
          "internalType": "string",
          "name": "",
          "type": "string"
        }
      ],
      "stateMutability": "view",
      "type": "function"
    },
    {
      "inputs": [
        {
          "internalType": "uint256",
          "name": "",
          "type": "uint256"
        }
      ],
      "name": "names",
      "outputs": [
        {
          "internalType": "string",
          "name": "",
          "type": "string"
        }
      ],
      "stateMutability": "view",
      "type": "function"
    },
    {
      "inputs": [],
      "name": "owner",
      "outputs": [
        {
          "internalType": "address payable",
          "name": "",
          "type": "address"
        }
      ],
      "stateMutability": "view",
      "type": "function"
    },
    {
      "inputs": [
        {
          "internalType": "uint256",
          "name": "tokenId",
          "type": "uint256"
        }
      ],
      "name": "ownerOf",
      "outputs": [
        {
          "internalType": "address",
          "name": "",
          "type": "address"
        }
      ],
      "stateMutability": "view",
      "type": "function"
    },
    {
      "inputs": [
        {
          "internalType": "string",
          "name": "name",
          "type": "string"
        }
      ],
      "name": "price",
      "outputs": [
        {
          "internalType": "uint256",
          "name": "",
          "type": "uint256"
        }
      ],
      "stateMutability": "pure",
      "type": "function"
    },
    {
      "inputs": [
        {
          "internalType": "string",
          "name": "",
          "type": "string"
        }
      ],
      "name": "records",
      "outputs": [
        {
          "internalType": "string",
          "name": "",
          "type": "string"
        }
      ],
      "stateMutability": "view",
      "type": "function"
    },
    {
      "inputs": [
        {
          "internalType": "string",
          "name": "name",
          "type": "string"
        }
      ],
      "name": "register",
      "outputs": [],
      "stateMutability": "payable",
      "type": "function"
    },
    {
      "inputs": [
        {
          "internalType": "address",
          "name": "from",
          "type": "address"
        },
        {
          "internalType": "address",
          "name": "to",
          "type": "address"
        },
        {
          "internalType": "uint256",
          "name": "tokenId",
          "type": "uint256"
        }
      ],
      "name": "safeTransferFrom",
      "outputs": [],
      "stateMutability": "nonpayable",
      "type": "function"
    },
    {
      "inputs": [
        {
          "internalType": "address",
          "name": "from",
          "type": "address"
        },
        {
          "internalType": "address",
          "name": "to",
          "type": "address"
        },
        {
          "internalType": "uint256",
          "name": "tokenId",
          "type": "uint256"
        },
        {
          "internalType": "bytes",
          "name": "_data",
          "type": "bytes"
        }
      ],
      "name": "safeTransferFrom",
      "outputs": [],
      "stateMutability": "nonpayable",
      "type": "function"
    },
    {
      "inputs": [
        {
          "internalType": "address",
          "name": "operator",
          "type": "address"
        },
        {
          "internalType": "bool",
          "name": "approved",
          "type": "bool"
        }
      ],
      "name": "setApprovalForAll",
      "outputs": [],
      "stateMutability": "nonpayable",
      "type": "function"
    },
    {
      "inputs": [
        {
          "internalType": "string",
          "name": "name",
          "type": "string"
        },
        {
          "internalType": "string",
          "name": "record",
          "type": "string"
        }
      ],
      "name": "setRecord",
      "outputs": [],
      "stateMutability": "nonpayable",
      "type": "function"
    },
    {
      "inputs": [
        {
          "internalType": "bytes4",
          "name": "interfaceId",
          "type": "bytes4"
        }
      ],
      "name": "supportsInterface",
      "outputs": [
        {
          "internalType": "bool",
          "name": "",
          "type": "bool"
        }
      ],
      "stateMutability": "view",
      "type": "function"
    },
    {
      "inputs": [],
      "name": "symbol",
      "outputs": [
        {
          "internalType": "string",
          "name": "",
          "type": "string"
        }
      ],
      "stateMutability": "view",
      "type": "function"
    },
    {
      "inputs": [],
      "name": "tld",
      "outputs": [
        {
          "internalType": "string",
          "name": "",
          "type": "string"
        }
      ],
      "stateMutability": "view",
      "type": "function"
    },
    {
      "inputs": [
        {
          "internalType": "uint256",
          "name": "tokenId",
          "type": "uint256"
        }
      ],
      "name": "tokenURI",
      "outputs": [
        {
          "internalType": "string",
          "name": "",
          "type": "string"
        }
      ],
      "stateMutability": "view",
      "type": "function"
    },
    {
      "inputs": [
        {
          "internalType": "address",
          "name": "from",
          "type": "address"
        },
        {
          "internalType": "address",
          "name": "to",
          "type": "address"
        },
        {
          "internalType": "uint256",
          "name": "tokenId",
          "type": "uint256"
        }
      ],
      "name": "transferFrom",
      "outputs": [],
      "stateMutability": "nonpayable",
      "type": "function"
    },
    {
      "inputs": [
        {
          "internalType": "string",
          "name": "name",
          "type": "string"
        }
      ],
      "name": "valid",
      "outputs": [
        {
          "internalType": "bool",
          "name": "",
          "type": "bool"
        }
      ],
      "stateMutability": "pure",
      "type": "function"
    },
    {
      "inputs": [],
      "name": "withdraw",
      "outputs": [],
      "stateMutability": "nonpayable",
      "type": "function"
    }
  ],
  "bytecode": "0x6080604052604051806108a0016040528061086b8152602001620052b261086b9139600a908051906020019062000038929190620002c8565b506040518060400160405280600d81526020017f3c2f746578743e3c2f7376673e00000000000000000000000000000000000000815250600b908051906020019062000086929190620002c8565b5060405162005b1d38038062005b1d8339818101604052810190620000ac919062000515565b6040518060400160405280600f81526020017f4146204e616d65205365727669636500000000000000000000000000000000008152506040518060400160405280600381526020017f414e530000000000000000000000000000000000000000000000000000000000815250816000908051906020019062000130929190620002c8565b50806001908051906020019062000149929190620002c8565b50505033600860006101000a81548173ffffffffffffffffffffffffffffffffffffffff021916908373ffffffffffffffffffffffffffffffffffffffff1602179055508060079080519060200190620001a5929190620002c8565b50620001f26040518060400160405280601b81526020017f257320646f6d61696e2073657276696365206465706c6f79656421000000000081525082620001f960201b62001b4d1760201c565b5062000663565b6200029b828260405160240162000212929190620005c3565b6040516020818303038152906040527f4b5c4277000000000000000000000000000000000000000000000000000000007bffffffffffffffffffffffffffffffffffffffffffffffffffffffff19166020820180517bffffffffffffffffffffffffffffffffffffffffffffffffffffffff83818316178352505050506200029f60201b60201c565b5050565b60008151905060006a636f6e736f6c652e6c6f679050602083016000808483855afa5050505050565b828054620002d6906200062d565b90600052602060002090601f016020900481019282620002fa576000855562000346565b82601f106200031557805160ff191683800117855562000346565b8280016001018555821562000346579182015b828111156200034557825182559160200191906001019062000328565b5b50905062000355919062000359565b5090565b5b80821115620003745760008160009055506001016200035a565b5090565b6000604051905090565b600080fd5b600080fd5b600080fd5b600080fd5b6000601f19601f8301169050919050565b7f4e487b7100000000000000000000000000000000000000000000000000000000600052604160045260246000fd5b620003e18262000396565b810181811067ffffffffffffffff82111715620004035762000402620003a7565b5b80604052505050565b60006200041862000378565b9050620004268282620003d6565b919050565b600067ffffffffffffffff821115620004495762000448620003a7565b5b620004548262000396565b9050602081019050919050565b60005b838110156200048157808201518184015260208101905062000464565b8381111562000491576000848401525b50505050565b6000620004ae620004a8846200042b565b6200040c565b905082815260208101848484011115620004cd57620004cc62000391565b5b620004da84828562000461565b509392505050565b600082601f830112620004fa57620004f96200038c565b5b81516200050c84826020860162000497565b91505092915050565b6000602082840312156200052e576200052d62000382565b5b600082015167ffffffffffffffff8111156200054f576200054e62000387565b5b6200055d84828501620004e2565b91505092915050565b600081519050919050565b600082825260208201905092915050565b60006200058f8262000566565b6200059b818562000571565b9350620005ad81856020860162000461565b620005b88162000396565b840191505092915050565b60006040820190508181036000830152620005df818562000582565b90508181036020830152620005f5818462000582565b90509392505050565b7f4e487b7100000000000000000000000000000000000000000000000000000000600052602260045260246000fd5b600060028204905060018216806200064657607f821691505b602082108114156200065d576200065c620005fe565b5b50919050565b614c3f80620006736000396000f3fe60806040526004361061019c5760003560e01c80636352211e116100ec578063b88d4fde1161008a578063e985e9c511610064578063e985e9c514610624578063f2c298be14610661578063fb825e5f1461067d578063fe2c6198146106a85761019c565b8063b88d4fde14610595578063c1880a98146105be578063c87b56dd146105e75761019c565b80638f32d59b116100c65780638f32d59b146104d957806395d89b41146105045780639791c0971461052f578063a22cb4651461056c5761019c565b80636352211e1461043457806370a08231146104715780638da5cb5b146104ae5761019c565b806323b872dd116101595780633ccfd60b116101335780633ccfd60b1461037a57806342842e0e146103915780634622ab03146103ba578063541e771d146103f75761019c565b806323b872dd146102e957806326449235146103125780632d5514321461034f5761019c565b806301ffc9a7146101a157806306fdde03146101de578063081812fc14610209578063095ea7b31461024657806311dd88451461026f578063141342a4146102ac575b600080fd5b3480156101ad57600080fd5b506101c860048036038101906101c39190613032565b6106e5565b6040516101d5919061307a565b60405180910390f35b3480156101ea57600080fd5b506101f36107c7565b604051610200919061312e565b60405180910390f35b34801561021557600080fd5b50610230600480360381019061022b9190613186565b610859565b60405161023d91906131f4565b60405180910390f35b34801561025257600080fd5b5061026d6004803603810190610268919061323b565b6108de565b005b34801561027b57600080fd5b50610296600480360381019061029191906132e0565b6109f6565b6040516102a3919061312e565b60405180910390f35b3480156102b857600080fd5b506102d360048036038101906102ce91906132e0565b610aa9565b6040516102e091906131f4565b60405180910390f35b3480156102f557600080fd5b50610310600480360381019061030b919061332d565b610af4565b005b34801561031e57600080fd5b50610339600480360381019061033491906134b0565b610b54565b60405161034691906131f4565b60405180910390f35b34801561035b57600080fd5b50610364610b9d565b604051610371919061312e565b60405180910390f35b34801561038657600080fd5b5061038f610c2b565b005b34801561039d57600080fd5b506103b860048036038101906103b3919061332d565b610d1e565b005b3480156103c657600080fd5b506103e160048036038101906103dc9190613186565b610d3e565b6040516103ee919061312e565b60405180910390f35b34801561040357600080fd5b5061041e600480360381019061041991906134b0565b610dde565b60405161042b919061312e565b60405180910390f35b34801561044057600080fd5b5061045b60048036038101906104569190613186565b610e94565b60405161046891906131f4565b60405180910390f35b34801561047d57600080fd5b50610498600480360381019061049391906134f9565b610f46565b6040516104a59190613535565b60405180910390f35b3480156104ba57600080fd5b506104c3610ffe565b6040516104d09190613571565b60405180910390f35b3480156104e557600080fd5b506104ee611024565b6040516104fb919061307a565b60405180910390f35b34801561051057600080fd5b5061051961107c565b604051610526919061312e565b60405180910390f35b34801561053b57600080fd5b50610556600480360381019061055191906132e0565b61110e565b604051610563919061307a565b60405180910390f35b34801561057857600080fd5b50610593600480360381019061058e91906135b8565b6111c2565b005b3480156105a157600080fd5b506105bc60048036038101906105b79190613699565b6111d8565b005b3480156105ca57600080fd5b506105e560048036038101906105e0919061371c565b61123a565b005b3480156105f357600080fd5b5061060e60048036038101906106099190613186565b6112e8565b60405161061b919061312e565b60405180910390f35b34801561063057600080fd5b5061064b6004803603810190610646919061379d565b61143a565b604051610658919061307a565b60405180910390f35b61067b600480360381019061067691906132e0565b6114ce565b005b34801561068957600080fd5b5061069261191c565b60405161069f91906138e9565b60405180910390f35b3480156106b457600080fd5b506106cf60048036038101906106ca91906132e0565b611add565b6040516106dc9190613535565b60405180910390f35b60007f80ac58cd000000000000000000000000000000000000000000000000000000007bffffffffffffffffffffffffffffffffffffffffffffffffffffffff1916827bffffffffffffffffffffffffffffffffffffffffffffffffffffffff191614806107b057507f5b5e139f000000000000000000000000000000000000000000000000000000007bffffffffffffffffffffffffffffffffffffffffffffffffffffffff1916827bffffffffffffffffffffffffffffffffffffffffffffffffffffffff1916145b806107c057506107bf82611be9565b5b9050919050565b6060600080546107d69061393a565b80601f01602080910402602001604051908101604052809291908181526020018280546108029061393a565b801561084f5780601f106108245761010080835404028352916020019161084f565b820191906000526020600020905b81548152906001019060200180831161083257829003601f168201915b5050505050905090565b600061086482611c53565b6108a3576040517f08c379a000000000000000000000000000000000000000000000000000000000815260040161089a906139de565b60405180910390fd5b6004600083815260200190815260200160002060009054906101000a900473ffffffffffffffffffffffffffffffffffffffff169050919050565b60006108e982610e94565b90508073ffffffffffffffffffffffffffffffffffffffff168373ffffffffffffffffffffffffffffffffffffffff16141561095a576040517f08c379a000000000000000000000000000000000000000000000000000000000815260040161095190613a70565b60405180910390fd5b8073ffffffffffffffffffffffffffffffffffffffff16610979611cbf565b73ffffffffffffffffffffffffffffffffffffffff1614806109a857506109a7816109a2611cbf565b61143a565b5b6109e7576040517f08c379a00000000000000000000000000000000000000000000000000000000081526004016109de90613b02565b60405180910390fd5b6109f18383611cc7565b505050565b6060600e8383604051610a0a929190613b52565b90815260200160405180910390208054610a239061393a565b80601f0160208091040260200160405190810160405280929190818152602001828054610a4f9061393a565b8015610a9c5780601f10610a7157610100808354040283529160200191610a9c565b820191906000526020600020905b815481529060010190602001808311610a7f57829003601f168201915b5050505050905092915050565b6000600c8383604051610abd929190613b52565b908152602001604051809103902060009054906101000a900473ffffffffffffffffffffffffffffffffffffffff16905092915050565b610b05610aff611cbf565b82611d80565b610b44576040517f08c379a0000000000000000000000000000000000000000000000000000000008152600401610b3b90613bdd565b60405180910390fd5b610b4f838383611e5e565b505050565b600c818051602081018201805184825260208301602085012081835280955050505050506000915054906101000a900473ffffffffffffffffffffffffffffffffffffffff1681565b60078054610baa9061393a565b80601f0160208091040260200160405190810160405280929190818152602001828054610bd69061393a565b8015610c235780601f10610bf857610100808354040283529160200191610c23565b820191906000526020600020905b815481529060010190602001808311610c0657829003601f168201915b505050505081565b610c33611024565b610c69576040517f82b4290000000000000000000000000000000000000000000000000000000000815260040160405180910390fd5b600047905060003373ffffffffffffffffffffffffffffffffffffffff1682604051610c9490613c2e565b60006040518083038185875af1925050503d8060008114610cd1576040519150601f19603f3d011682016040523d82523d6000602084013e610cd6565b606091505b5050905080610d1a576040517f08c379a0000000000000000000000000000000000000000000000000000000008152600401610d1190613c8f565b60405180910390fd5b5050565b610d39838383604051806020016040528060008152506111d8565b505050565b600d6020528060005260406000206000915090508054610d5d9061393a565b80601f0160208091040260200160405190810160405280929190818152602001828054610d899061393a565b8015610dd65780601f10610dab57610100808354040283529160200191610dd6565b820191906000526020600020905b815481529060010190602001808311610db957829003601f168201915b505050505081565b600e818051602081018201805184825260208301602085012081835280955050505050506000915090508054610e139061393a565b80601f0160208091040260200160405190810160405280929190818152602001828054610e3f9061393a565b8015610e8c5780601f10610e6157610100808354040283529160200191610e8c565b820191906000526020600020905b815481529060010190602001808311610e6f57829003601f168201915b505050505081565b6000806002600084815260200190815260200160002060009054906101000a900473ffffffffffffffffffffffffffffffffffffffff169050600073ffffffffffffffffffffffffffffffffffffffff168173ffffffffffffffffffffffffffffffffffffffff161415610f3d576040517f08c379a0000000000000000000000000000000000000000000000000000000008152600401610f3490613d21565b60405180910390fd5b80915050919050565b60008073ffffffffffffffffffffffffffffffffffffffff168273ffffffffffffffffffffffffffffffffffffffff161415610fb7576040517f08c379a0000000000000000000000000000000000000000000000000000000008152600401610fae90613db3565b60405180910390fd5b600360008373ffffffffffffffffffffffffffffffffffffffff1673ffffffffffffffffffffffffffffffffffffffff168152602001908152602001600020549050919050565b600860009054906101000a900473ffffffffffffffffffffffffffffffffffffffff1681565b6000600860009054906101000a900473ffffffffffffffffffffffffffffffffffffffff1673ffffffffffffffffffffffffffffffffffffffff163373ffffffffffffffffffffffffffffffffffffffff1614905090565b60606001805461108b9061393a565b80601f01602080910402602001604051908101604052809291908181526020018280546110b79061393a565b80156111045780601f106110d957610100808354040283529160200191611104565b820191906000526020600020905b8154815290600101906020018083116110e757829003601f168201915b5050505050905090565b6000600361115f84848080601f016020809104026020016040519081016040528093929190818152602001838380828437600081840152601f19601f820116905080830192505050505050506120c5565b101580156111ba5750600a6111b784848080601f016020809104026020016040519081016040528093929190818152602001838380828437600081840152601f19601f820116905080830192505050505050506120c5565b11155b905092915050565b6111d46111cd611cbf565b838361227a565b5050565b6111e96111e3611cbf565b83611d80565b611228576040517f08c379a000000000000000000000000000000000000000000000000000000000815260040161121f90613bdd565b60405180910390fd5b611234848484846123e7565b50505050565b3373ffffffffffffffffffffffffffffffffffffffff16600c8585604051611263929190613b52565b908152602001604051809103902060009054906101000a900473ffffffffffffffffffffffffffffffffffffffff1673ffffffffffffffffffffffffffffffffffffffff16146112b257600080fd5b8181600e86866040516112c6929190613b52565b908152602001604051809103902091906112e1929190612e9d565b5050505050565b60606112f382611c53565b611332576040517f08c379a000000000000000000000000000000000000000000000000000000000815260040161132990613e45565b60405180910390fd5b60006006600084815260200190815260200160002080546113529061393a565b80601f016020809104026020016040519081016040528092919081815260200182805461137e9061393a565b80156113cb5780601f106113a0576101008083540402835291602001916113cb565b820191906000526020600020905b8154815290600101906020018083116113ae57829003601f168201915b5050505050905060006113dc612443565b90506000815114156113f2578192505050611435565b60008251111561142757808260405160200161140f929190613e96565b60405160208183030381529060405292505050611435565b6114308461245a565b925050505b919050565b6000600560008473ffffffffffffffffffffffffffffffffffffffff1673ffffffffffffffffffffffffffffffffffffffff16815260200190815260200160002060008373ffffffffffffffffffffffffffffffffffffffff1673ffffffffffffffffffffffffffffffffffffffff16815260200190815260200160002060009054906101000a900460ff16905092915050565b600073ffffffffffffffffffffffffffffffffffffffff16600c83836040516114f8929190613b52565b908152602001604051809103902060009054906101000a900473ffffffffffffffffffffffffffffffffffffffff1673ffffffffffffffffffffffffffffffffffffffff1614611574576040517f3a81d6fc00000000000000000000000000000000000000000000000000000000815260040160405180910390fd5b33600c8383604051611587929190613b52565b908152602001604051809103902060006101000a81548173ffffffffffffffffffffffffffffffffffffffff021916908373ffffffffffffffffffffffffffffffffffffffff16021790555060006115df8383611add565b905080341015611624576040517f08c379a000000000000000000000000000000000000000000000000000000000815260040161161b90613f06565b60405180910390fd5b60008383600760405160200161163c93929190614006565b60405160208183030381529060405290506000600a82600b60405160200161166693929190614037565b604051602081830303815290604052905060006116836009612501565b905060006116d487878080601f016020809104026020016040519081016040528093929190818152602001838380828437600081840152601f19601f820116905080830192505050505050506120c5565b905060006116e18261250f565b90506117f26040518060400160405280601981526020017f25732e257320697320726567697374657265642062792025730000000000000081525089898080601f016020809104026020016040519081016040528093929190818152602001838380828437600081840152601f19601f820116905080830192505050505050506007805461176e9061393a565b80601f016020809104026020016040519081016040528092919081815260200182805461179a9061393a565b80156117e75780601f106117bc576101008083540402835291602001916117e7565b820191906000526020600020905b8154815290600101906020018083116117ca57829003601f168201915b505050505033612670565b60006118288661180187612712565b84604051602001611814939291906141e4565b604051602081830303815290604052612712565b905060008160405160200161183d919061428d565b604051602081830303815290604052905061186f604051806060016040528060398152602001614b35603991396128aa565b6118ae6040518060400160405280600e81526020017f46696e616c20746f6b656e55524900000000000000000000000000000000000081525082611b4d565b6118cf604051806060016040528060398152602001614b6e603991396128aa565b6118d93386612943565b6118e38582612961565b8989600d60008881526020019081526020016000209190611905929190612e9d565b5061191060096129d5565b50505050505050505050565b606061193f604051806060016040528060238152602001614be7602391396128aa565b600061194b6009612501565b67ffffffffffffffff81111561196457611963613385565b5b60405190808252806020026020018201604052801561199757816020015b60608152602001906001900390816119825790505b50905060005b6119a76009612501565b811015611ad557600d600082815260200190815260200160002080546119cc9061393a565b80601f01602080910402602001604051908101604052809291908181526020018280546119f89061393a565b8015611a455780601f10611a1a57610100808354040283529160200191611a45565b820191906000526020600020905b815481529060010190602001808311611a2857829003601f168201915b5050505050828281518110611a5d57611a5c6142af565b5b6020026020010181905250611ac26040518060400160405280601781526020017f4e616d6520666f7220746f6b656e20256420697320257300000000000000000081525082848481518110611ab557611ab46142af565b5b60200260200101516129eb565b8080611acd9061430d565b91505061199d565b508091505090565b600080611b2d84848080601f016020809104026020016040519081016040528093929190818152602001838380828437600081840152601f19601f820116905080830192505050505050506120c5565b905060008111611b3c57600080fd5b662386f26fc1000091505092915050565b611be58282604051602401611b63929190614356565b6040516020818303038152906040527f4b5c4277000000000000000000000000000000000000000000000000000000007bffffffffffffffffffffffffffffffffffffffffffffffffffffffff19166020820180517bffffffffffffffffffffffffffffffffffffffffffffffffffffffff8381831617835250505050612a8a565b5050565b60007f01ffc9a7000000000000000000000000000000000000000000000000000000007bffffffffffffffffffffffffffffffffffffffffffffffffffffffff1916827bffffffffffffffffffffffffffffffffffffffffffffffffffffffff1916149050919050565b60008073ffffffffffffffffffffffffffffffffffffffff166002600084815260200190815260200160002060009054906101000a900473ffffffffffffffffffffffffffffffffffffffff1673ffffffffffffffffffffffffffffffffffffffff1614159050919050565b600033905090565b816004600083815260200190815260200160002060006101000a81548173ffffffffffffffffffffffffffffffffffffffff021916908373ffffffffffffffffffffffffffffffffffffffff160217905550808273ffffffffffffffffffffffffffffffffffffffff16611d3a83610e94565b73ffffffffffffffffffffffffffffffffffffffff167f8c5be1e5ebec7d5bd14f71427d1e84f3dd0314c0f7b2291e5b200ac8c7c3b92560405160405180910390a45050565b6000611d8b82611c53565b611dca576040517f08c379a0000000000000000000000000000000000000000000000000000000008152600401611dc1906143ff565b60405180910390fd5b6000611dd583610e94565b90508073ffffffffffffffffffffffffffffffffffffffff168473ffffffffffffffffffffffffffffffffffffffff161480611e4457508373ffffffffffffffffffffffffffffffffffffffff16611e2c84610859565b73ffffffffffffffffffffffffffffffffffffffff16145b80611e555750611e54818561143a565b5b91505092915050565b8273ffffffffffffffffffffffffffffffffffffffff16611e7e82610e94565b73ffffffffffffffffffffffffffffffffffffffff1614611ed4576040517f08c379a0000000000000000000000000000000000000000000000000000000008152600401611ecb90614491565b60405180910390fd5b600073ffffffffffffffffffffffffffffffffffffffff168273ffffffffffffffffffffffffffffffffffffffff161415611f44576040517f08c379a0000000000000000000000000000000000000000000000000000000008152600401611f3b90614523565b60405180910390fd5b611f4f838383612ab3565b611f5a600082611cc7565b6001600360008573ffffffffffffffffffffffffffffffffffffffff1673ffffffffffffffffffffffffffffffffffffffff1681526020019081526020016000206000828254611faa9190614543565b925050819055506001600360008473ffffffffffffffffffffffffffffffffffffffff1673ffffffffffffffffffffffffffffffffffffffff16815260200190815260200160002060008282546120019190614577565b92505081905550816002600083815260200190815260200160002060006101000a81548173ffffffffffffffffffffffffffffffffffffffff021916908373ffffffffffffffffffffffffffffffffffffffff160217905550808273ffffffffffffffffffffffffffffffffffffffff168473ffffffffffffffffffffffffffffffffffffffff167fddf252ad1be2c89b69c2b068fc378daa952ba7f163c4a11628f55a4df523b3ef60405160405180910390a46120c0838383612ab8565b505050565b60008060008084519050600092505b8082101561226f5760008583815181106120f1576120f06142af565b5b602001015160f81c60f81b9050608060f81b817effffffffffffffffffffffffffffffffffffffffffffffffffffffffffffff19161015612140576001836121399190614577565b925061225b565b60e060f81b817effffffffffffffffffffffffffffffffffffffffffffffffffffffffffffff191610156121825760028361217b9190614577565b925061225a565b60f060f81b817effffffffffffffffffffffffffffffffffffffffffffffffffffffffffffff191610156121c4576003836121bd9190614577565b9250612259565b60f8801b817effffffffffffffffffffffffffffffffffffffffffffffffffffffffffffff19161015612205576004836121fe9190614577565b9250612258565b60fc60f81b817effffffffffffffffffffffffffffffffffffffffffffffffffffffffffffff19161015612247576005836122409190614577565b9250612257565b6006836122549190614577565b92505b5b5b5b5b5082806122679061430d565b9350506120d4565b829350505050919050565b8173ffffffffffffffffffffffffffffffffffffffff168373ffffffffffffffffffffffffffffffffffffffff1614156122e9576040517f08c379a00000000000000000000000000000000000000000000000000000000081526004016122e090614619565b60405180910390fd5b80600560008573ffffffffffffffffffffffffffffffffffffffff1673ffffffffffffffffffffffffffffffffffffffff16815260200190815260200160002060008473ffffffffffffffffffffffffffffffffffffffff1673ffffffffffffffffffffffffffffffffffffffff16815260200190815260200160002060006101000a81548160ff0219169083151502179055508173ffffffffffffffffffffffffffffffffffffffff168373ffffffffffffffffffffffffffffffffffffffff167f17307eab39ab6107e8899845ad3d59bd9653f200f220920489ca2b5937696c31836040516123da919061307a565b60405180910390a3505050565b6123f2848484611e5e565b6123fe84848484612abd565b61243d576040517f08c379a0000000000000000000000000000000000000000000000000000000008152600401612434906146ab565b60405180910390fd5b50505050565b606060405180602001604052806000815250905090565b606061246582611c53565b6124a4576040517f08c379a000000000000000000000000000000000000000000000000000000000815260040161249b9061473d565b60405180910390fd5b60006124ae612443565b905060008151116124ce57604051806020016040528060008152506124f9565b806124d88461250f565b6040516020016124e9929190613e96565b6040516020818303038152906040525b915050919050565b600081600001549050919050565b60606000821415612557576040518060400160405280600181526020017f3000000000000000000000000000000000000000000000000000000000000000815250905061266b565b600082905060005b600082146125895780806125729061430d565b915050600a82612582919061478c565b915061255f565b60008167ffffffffffffffff8111156125a5576125a4613385565b5b6040519080825280601f01601f1916602001820160405280156125d75781602001600182028036833780820191505090505b5090505b60008514612664576001826125f09190614543565b9150600a856125ff91906147bd565b603061260b9190614577565b60f81b818381518110612621576126206142af565b5b60200101907effffffffffffffffffffffffffffffffffffffffffffffffffffffffffffff1916908160001a905350600a8561265d919061478c565b94506125db565b8093505050505b919050565b61270c8484848460405160240161268a94939291906147ee565b6040516020818303038152906040527f6d572f44000000000000000000000000000000000000000000000000000000007bffffffffffffffffffffffffffffffffffffffffffffffffffffffff19166020820180517bffffffffffffffffffffffffffffffffffffffffffffffffffffffff8381831617835250505050612a8a565b50505050565b6060600082519050600081141561273b57604051806020016040528060008152509150506128a5565b6000600360028361274c9190614577565b612756919061478c565b60046127629190614848565b905060006020826127739190614577565b67ffffffffffffffff81111561278c5761278b613385565b5b6040519080825280601f01601f1916602001820160405280156127be5781602001600182028036833780820191505090505b5090506000604051806060016040528060408152602001614ba7604091399050600181016020830160005b868110156128625760038101905062ffffff818a015116603f8160121c168401518060081b905060ff603f83600c1c1686015116810190508060081b905060ff603f8360061c1686015116810190508060081b905060ff603f831686015116810190508060e01b905080845260048401935050506127e9565b50600386066001811461287c576002811461288c57612897565b613d3d60f01b6002830352612897565b603d60f81b60018303525b508484525050819450505050505b919050565b612940816040516024016128be919061312e565b6040516020818303038152906040527f41304fac000000000000000000000000000000000000000000000000000000007bffffffffffffffffffffffffffffffffffffffffffffffffffffffff19166020820180517bffffffffffffffffffffffffffffffffffffffffffffffffffffffff8381831617835250505050612a8a565b50565b61295d828260405180602001604052806000815250612c45565b5050565b61296a82611c53565b6129a9576040517f08c379a00000000000000000000000000000000000000000000000000000000081526004016129a090614914565b60405180910390fd5b806006600084815260200190815260200160002090805190602001906129d0929190612f23565b505050565b6001816000016000828254019250508190555050565b612a85838383604051602401612a0393929190614934565b6040516020818303038152906040527fa3f5c739000000000000000000000000000000000000000000000000000000007bffffffffffffffffffffffffffffffffffffffffffffffffffffffff19166020820180517bffffffffffffffffffffffffffffffffffffffffffffffffffffffff8381831617835250505050612a8a565b505050565b60008151905060006a636f6e736f6c652e6c6f679050602083016000808483855afa5050505050565b505050565b505050565b6000612ade8473ffffffffffffffffffffffffffffffffffffffff16612ca0565b15612c38578373ffffffffffffffffffffffffffffffffffffffff1663150b7a02612b07611cbf565b8786866040518563ffffffff1660e01b8152600401612b2994939291906149ce565b6020604051808303816000875af1925050508015612b6557506040513d601f19601f82011682018060405250810190612b629190614a2f565b60015b612be8573d8060008114612b95576040519150601f19603f3d011682016040523d82523d6000602084013e612b9a565b606091505b50600081511415612be0576040517f08c379a0000000000000000000000000000000000000000000000000000000008152600401612bd7906146ab565b60405180910390fd5b805181602001fd5b63150b7a0260e01b7bffffffffffffffffffffffffffffffffffffffffffffffffffffffff1916817bffffffffffffffffffffffffffffffffffffffffffffffffffffffff191614915050612c3d565b600190505b949350505050565b612c4f8383612cc3565b612c5c6000848484612abd565b612c9b576040517f08c379a0000000000000000000000000000000000000000000000000000000008152600401612c92906146ab565b60405180910390fd5b505050565b6000808273ffffffffffffffffffffffffffffffffffffffff163b119050919050565b600073ffffffffffffffffffffffffffffffffffffffff168273ffffffffffffffffffffffffffffffffffffffff161415612d33576040517f08c379a0000000000000000000000000000000000000000000000000000000008152600401612d2a90614aa8565b60405180910390fd5b612d3c81611c53565b15612d7c576040517f08c379a0000000000000000000000000000000000000000000000000000000008152600401612d7390614b14565b60405180910390fd5b612d8860008383612ab3565b6001600360008473ffffffffffffffffffffffffffffffffffffffff1673ffffffffffffffffffffffffffffffffffffffff1681526020019081526020016000206000828254612dd89190614577565b92505081905550816002600083815260200190815260200160002060006101000a81548173ffffffffffffffffffffffffffffffffffffffff021916908373ffffffffffffffffffffffffffffffffffffffff160217905550808273ffffffffffffffffffffffffffffffffffffffff16600073ffffffffffffffffffffffffffffffffffffffff167fddf252ad1be2c89b69c2b068fc378daa952ba7f163c4a11628f55a4df523b3ef60405160405180910390a4612e9960008383612ab8565b5050565b828054612ea99061393a565b90600052602060002090601f016020900481019282612ecb5760008555612f12565b82601f10612ee457803560ff1916838001178555612f12565b82800160010185558215612f12579182015b82811115612f11578235825591602001919060010190612ef6565b5b509050612f1f9190612fa9565b5090565b828054612f2f9061393a565b90600052602060002090601f016020900481019282612f515760008555612f98565b82601f10612f6a57805160ff1916838001178555612f98565b82800160010185558215612f98579182015b82811115612f97578251825591602001919060010190612f7c565b5b509050612fa59190612fa9565b5090565b5b80821115612fc2576000816000905550600101612faa565b5090565b6000604051905090565b600080fd5b600080fd5b60007fffffffff0000000000000000000000000000000000000000000000000000000082169050919050565b61300f81612fda565b811461301a57600080fd5b50565b60008135905061302c81613006565b92915050565b60006020828403121561304857613047612fd0565b5b60006130568482850161301d565b91505092915050565b60008115159050919050565b6130748161305f565b82525050565b600060208201905061308f600083018461306b565b92915050565b600081519050919050565b600082825260208201905092915050565b60005b838110156130cf5780820151818401526020810190506130b4565b838111156130de576000848401525b50505050565b6000601f19601f8301169050919050565b600061310082613095565b61310a81856130a0565b935061311a8185602086016130b1565b613123816130e4565b840191505092915050565b6000602082019050818103600083015261314881846130f5565b905092915050565b6000819050919050565b61316381613150565b811461316e57600080fd5b50565b6000813590506131808161315a565b92915050565b60006020828403121561319c5761319b612fd0565b5b60006131aa84828501613171565b91505092915050565b600073ffffffffffffffffffffffffffffffffffffffff82169050919050565b60006131de826131b3565b9050919050565b6131ee816131d3565b82525050565b600060208201905061320960008301846131e5565b92915050565b613218816131d3565b811461322357600080fd5b50565b6000813590506132358161320f565b92915050565b6000806040838503121561325257613251612fd0565b5b600061326085828601613226565b925050602061327185828601613171565b9150509250929050565b600080fd5b600080fd5b600080fd5b60008083601f8401126132a05761329f61327b565b5b8235905067ffffffffffffffff8111156132bd576132bc613280565b5b6020830191508360018202830111156132d9576132d8613285565b5b9250929050565b600080602083850312156132f7576132f6612fd0565b5b600083013567ffffffffffffffff81111561331557613314612fd5565b5b6133218582860161328a565b92509250509250929050565b60008060006060848603121561334657613345612fd0565b5b600061335486828701613226565b935050602061336586828701613226565b925050604061337686828701613171565b9150509250925092565b600080fd5b7f4e487b7100000000000000000000000000000000000000000000000000000000600052604160045260246000fd5b6133bd826130e4565b810181811067ffffffffffffffff821117156133dc576133db613385565b5b80604052505050565b60006133ef612fc6565b90506133fb82826133b4565b919050565b600067ffffffffffffffff82111561341b5761341a613385565b5b613424826130e4565b9050602081019050919050565b82818337600083830152505050565b600061345361344e84613400565b6133e5565b90508281526020810184848401111561346f5761346e613380565b5b61347a848285613431565b509392505050565b600082601f8301126134975761349661327b565b5b81356134a7848260208601613440565b91505092915050565b6000602082840312156134c6576134c5612fd0565b5b600082013567ffffffffffffffff8111156134e4576134e3612fd5565b5b6134f084828501613482565b91505092915050565b60006020828403121561350f5761350e612fd0565b5b600061351d84828501613226565b91505092915050565b61352f81613150565b82525050565b600060208201905061354a6000830184613526565b92915050565b600061355b826131b3565b9050919050565b61356b81613550565b82525050565b60006020820190506135866000830184613562565b92915050565b6135958161305f565b81146135a057600080fd5b50565b6000813590506135b28161358c565b92915050565b600080604083850312156135cf576135ce612fd0565b5b60006135dd85828601613226565b92505060206135ee858286016135a3565b9150509250929050565b600067ffffffffffffffff82111561361357613612613385565b5b61361c826130e4565b9050602081019050919050565b600061363c613637846135f8565b6133e5565b90508281526020810184848401111561365857613657613380565b5b613663848285613431565b509392505050565b600082601f8301126136805761367f61327b565b5b8135613690848260208601613629565b91505092915050565b600080600080608085870312156136b3576136b2612fd0565b5b60006136c187828801613226565b94505060206136d287828801613226565b93505060406136e387828801613171565b925050606085013567ffffffffffffffff81111561370457613703612fd5565b5b6137108782880161366b565b91505092959194509250565b6000806000806040858703121561373657613735612fd0565b5b600085013567ffffffffffffffff81111561375457613753612fd5565b5b6137608782880161328a565b9450945050602085013567ffffffffffffffff81111561378357613782612fd5565b5b61378f8782880161328a565b925092505092959194509250565b600080604083850312156137b4576137b3612fd0565b5b60006137c285828601613226565b92505060206137d385828601613226565b9150509250929050565b600081519050919050565b600082825260208201905092915050565b6000819050602082019050919050565b600082825260208201905092915050565b600061382582613095565b61382f8185613809565b935061383f8185602086016130b1565b613848816130e4565b840191505092915050565b600061385f838361381a565b905092915050565b6000602082019050919050565b600061387f826137dd565b61388981856137e8565b93508360208202850161389b856137f9565b8060005b858110156138d757848403895281516138b88582613853565b94506138c383613867565b925060208a0199505060018101905061389f565b50829750879550505050505092915050565b600060208201905081810360008301526139038184613874565b905092915050565b7f4e487b7100000000000000000000000000000000000000000000000000000000600052602260045260246000fd5b6000600282049050600182168061395257607f821691505b602082108114156139665761396561390b565b5b50919050565b7f4552433732313a20617070726f76656420717565727920666f72206e6f6e657860008201527f697374656e7420746f6b656e0000000000000000000000000000000000000000602082015250565b60006139c8602c836130a0565b91506139d38261396c565b604082019050919050565b600060208201905081810360008301526139f7816139bb565b9050919050565b7f4552433732313a20617070726f76616c20746f2063757272656e74206f776e6560008201527f7200000000000000000000000000000000000000000000000000000000000000602082015250565b6000613a5a6021836130a0565b9150613a65826139fe565b604082019050919050565b60006020820190508181036000830152613a8981613a4d565b9050919050565b7f4552433732313a20617070726f76652063616c6c6572206973206e6f74206f7760008201527f6e6572206e6f7220617070726f76656420666f7220616c6c0000000000000000602082015250565b6000613aec6038836130a0565b9150613af782613a90565b604082019050919050565b60006020820190508181036000830152613b1b81613adf565b9050919050565b600081905092915050565b6000613b398385613b22565b9350613b46838584613431565b82840190509392505050565b6000613b5f828486613b2d565b91508190509392505050565b7f4552433732313a207472616e736665722063616c6c6572206973206e6f74206f60008201527f776e6572206e6f7220617070726f766564000000000000000000000000000000602082015250565b6000613bc76031836130a0565b9150613bd282613b6b565b604082019050919050565b60006020820190508181036000830152613bf681613bba565b9050919050565b600081905092915050565b50565b6000613c18600083613bfd565b9150613c2382613c08565b600082019050919050565b6000613c3982613c0b565b9150819050919050565b7f4e6f7420656e6f756768206d6174696321000000000000000000000000000000600082015250565b6000613c796011836130a0565b9150613c8482613c43565b602082019050919050565b60006020820190508181036000830152613ca881613c6c565b9050919050565b7f4552433732313a206f776e657220717565727920666f72206e6f6e657869737460008201527f656e7420746f6b656e0000000000000000000000000000000000000000000000602082015250565b6000613d0b6029836130a0565b9150613d1682613caf565b604082019050919050565b60006020820190508181036000830152613d3a81613cfe565b9050919050565b7f4552433732313a2062616c616e636520717565727920666f7220746865207a6560008201527f726f206164647265737300000000000000000000000000000000000000000000602082015250565b6000613d9d602a836130a0565b9150613da882613d41565b604082019050919050565b60006020820190508181036000830152613dcc81613d90565b9050919050565b7f45524337323155524953746f726167653a2055524920717565727920666f722060008201527f6e6f6e6578697374656e7420746f6b656e000000000000000000000000000000602082015250565b6000613e2f6031836130a0565b9150613e3a82613dd3565b604082019050919050565b60006020820190508181036000830152613e5e81613e22565b9050919050565b6000613e7082613095565b613e7a8185613b22565b9350613e8a8185602086016130b1565b80840191505092915050565b6000613ea28285613e65565b9150613eae8284613e65565b91508190509392505050565b7f4e6f7420656e6f756768204d61746963204c4f4c210000000000000000000000600082015250565b6000613ef06015836130a0565b9150613efb82613eba565b602082019050919050565b60006020820190508181036000830152613f1f81613ee3565b9050919050565b7f2e00000000000000000000000000000000000000000000000000000000000000600082015250565b6000613f5c600183613b22565b9150613f6782613f26565b600182019050919050565b60008190508160005260206000209050919050565b60008154613f948161393a565b613f9e8186613b22565b94506001821660008114613fb95760018114613fca57613ffd565b60ff19831686528186019350613ffd565b613fd385613f72565b60005b83811015613ff557815481890152600182019150602081019050613fd6565b838801955050505b50505092915050565b6000614013828587613b2d565b915061401e82613f4f565b915061402a8284613f87565b9150819050949350505050565b60006140438286613f87565b915061404f8285613e65565b915061405b8284613f87565b9150819050949350505050565b7f7b226e616d65223a202200000000000000000000000000000000000000000000600082015250565b600061409e600a83613b22565b91506140a982614068565b600a82019050919050565b7f222c20226465736372697074696f6e223a20224120646f6d61696e206f6e207460008201527f6865204e696e6a61206e616d652073657276696365222c2022696d616765223a60208201527f2022646174613a696d6167652f7376672b786d6c3b6261736536342c00000000604082015250565b6000614136605c83613b22565b9150614141826140b4565b605c82019050919050565b7f222c226c656e677468223a220000000000000000000000000000000000000000600082015250565b6000614182600c83613b22565b915061418d8261414c565b600c82019050919050565b7f227d000000000000000000000000000000000000000000000000000000000000600082015250565b60006141ce600283613b22565b91506141d982614198565b600282019050919050565b60006141ef82614091565b91506141fb8286613e65565b915061420682614129565b91506142128285613e65565b915061421d82614175565b91506142298284613e65565b9150614234826141c1565b9150819050949350505050565b7f646174613a6170706c69636174696f6e2f6a736f6e3b6261736536342c000000600082015250565b6000614277601d83613b22565b915061428282614241565b601d82019050919050565b60006142988261426a565b91506142a48284613e65565b915081905092915050565b7f4e487b7100000000000000000000000000000000000000000000000000000000600052603260045260246000fd5b7f4e487b7100000000000000000000000000000000000000000000000000000000600052601160045260246000fd5b600061431882613150565b91507fffffffffffffffffffffffffffffffffffffffffffffffffffffffffffffffff82141561434b5761434a6142de565b5b600182019050919050565b6000604082019050818103600083015261437081856130f5565b9050818103602083015261438481846130f5565b90509392505050565b7f4552433732313a206f70657261746f7220717565727920666f72206e6f6e657860008201527f697374656e7420746f6b656e0000000000000000000000000000000000000000602082015250565b60006143e9602c836130a0565b91506143f48261438d565b604082019050919050565b60006020820190508181036000830152614418816143dc565b9050919050565b7f4552433732313a207472616e736665722066726f6d20696e636f72726563742060008201527f6f776e6572000000000000000000000000000000000000000000000000000000602082015250565b600061447b6025836130a0565b91506144868261441f565b604082019050919050565b600060208201905081810360008301526144aa8161446e565b9050919050565b7f4552433732313a207472616e7366657220746f20746865207a65726f2061646460008201527f7265737300000000000000000000000000000000000000000000000000000000602082015250565b600061450d6024836130a0565b9150614518826144b1565b604082019050919050565b6000602082019050818103600083015261453c81614500565b9050919050565b600061454e82613150565b915061455983613150565b92508282101561456c5761456b6142de565b5b828203905092915050565b600061458282613150565b915061458d83613150565b9250827fffffffffffffffffffffffffffffffffffffffffffffffffffffffffffffffff038211156145c2576145c16142de565b5b828201905092915050565b7f4552433732313a20617070726f766520746f2063616c6c657200000000000000600082015250565b60006146036019836130a0565b915061460e826145cd565b602082019050919050565b60006020820190508181036000830152614632816145f6565b9050919050565b7f4552433732313a207472616e7366657220746f206e6f6e20455243373231526560008201527f63656976657220696d706c656d656e7465720000000000000000000000000000602082015250565b60006146956032836130a0565b91506146a082614639565b604082019050919050565b600060208201905081810360008301526146c481614688565b9050919050565b7f4552433732314d657461646174613a2055524920717565727920666f72206e6f60008201527f6e6578697374656e7420746f6b656e0000000000000000000000000000000000602082015250565b6000614727602f836130a0565b9150614732826146cb565b604082019050919050565b600060208201905081810360008301526147568161471a565b9050919050565b7f4e487b7100000000000000000000000000000000000000000000000000000000600052601260045260246000fd5b600061479782613150565b91506147a283613150565b9250826147b2576147b161475d565b5b828204905092915050565b60006147c882613150565b91506147d383613150565b9250826147e3576147e261475d565b5b828206905092915050565b6000608082019050818103600083015261480881876130f5565b9050818103602083015261481c81866130f5565b9050818103604083015261483081856130f5565b905061483f60608301846131e5565b95945050505050565b600061485382613150565b915061485e83613150565b9250817fffffffffffffffffffffffffffffffffffffffffffffffffffffffffffffffff0483118215151615614897576148966142de565b5b828202905092915050565b7f45524337323155524953746f726167653a2055524920736574206f66206e6f6e60008201527f6578697374656e7420746f6b656e000000000000000000000000000000000000602082015250565b60006148fe602e836130a0565b9150614909826148a2565b604082019050919050565b6000602082019050818103600083015261492d816148f1565b9050919050565b6000606082019050818103600083015261494e81866130f5565b905061495d6020830185613526565b818103604083015261496f81846130f5565b9050949350505050565b600081519050919050565b600082825260208201905092915050565b60006149a082614979565b6149aa8185614984565b93506149ba8185602086016130b1565b6149c3816130e4565b840191505092915050565b60006080820190506149e360008301876131e5565b6149f060208301866131e5565b6149fd6040830185613526565b8181036060830152614a0f8184614995565b905095945050505050565b600081519050614a2981613006565b92915050565b600060208284031215614a4557614a44612fd0565b5b6000614a5384828501614a1a565b91505092915050565b7f4552433732313a206d696e7420746f20746865207a65726f2061646472657373600082015250565b6000614a926020836130a0565b9150614a9d82614a5c565b602082019050919050565b60006020820190508181036000830152614ac181614a85565b9050919050565b7f4552433732313a20746f6b656e20616c7265616479206d696e74656400000000600082015250565b6000614afe601c836130a0565b9150614b0982614ac8565b602082019050919050565b60006020820190508181036000830152614b2d81614af1565b905091905056fe0a2d2d2d2d2d2d2d2d2d2d2d2d2d2d2d2d2d2d2d2d2d2d2d2d2d2d2d2d2d2d2d2d2d2d2d2d2d2d2d2d2d2d2d2d2d2d2d2d2d2d2d2d2d2d2d2d2d2d2d2d2d2d2d2d2d2d2d2d2d2d2d2d2d2d2d2d2d2d2d2d2d2d2d2d2d2d2d2d2d2d2d2d2d2d2d2d2d2d2d2d2d2d2d2d2d2d2d2d2d2d2d2d0a4142434445464748494a4b4c4d4e4f505152535455565758595a6162636465666768696a6b6c6d6e6f707172737475767778797a303132333435363738392b2f47657474696e6720616c6c206e616d65732066726f6d2074686520636f6e7472616374a26469706673582212206c5b694ee20bc5ed097ed0139c32b8a7bc92165a23161f489c956a91fe2499cd64736f6c634300080a00333c73766720786d6c6e733d22687474703a2f2f7777772e77332e6f72672f323030302f737667222077696474683d2232373022206865696768743d22323730222066696c6c3d226e6f6e65223e3c706174682066696c6c3d2275726c282342292220643d224d302030683237307632373048307a222f3e3c646566733e3c66696c7465722069643d22412220636f6c6f722d696e746572706f6c6174696f6e2d66696c746572733d2273524742222066696c746572556e6974733d227573657253706163654f6e55736522206865696768743d22323730222077696474683d22323730223e3c666544726f70536861646f772064783d2230222064793d22312220737464446576696174696f6e3d22322220666c6f6f642d6f7061636974793d222e323235222077696474683d223230302522206865696768743d2232303025222f3e3c2f66696c7465723e3c2f646566733e3c7061746820643d224d37322e3836332034322e393439632d2e3636382d2e3338372d312e3432362d2e35392d322e3139372d2e3539732d312e3532392e3230342d322e3139372e35396c2d31302e30383120362e3033322d362e383520332e3933342d31302e30383120362e303332632d2e3636382e3338372d312e3432362e35392d322e3139372e3539732d312e3532392d2e3230342d322e3139372d2e35396c2d382e3031332d342e37323161342e353220342e35322030203020312d312e3538392d312e363136632d2e3338342d2e3636352d2e3539342d312e3431382d2e3630382d322e313837762d392e3331632d2e3031332d2e3737352e3138352d312e3533382e3537322d322e32303861342e323520342e323520302030203120312e3632352d312e3539356c372e3838342d342e3539632e3636382d2e33383720312e3432362d2e353920322e3139372d2e353973312e3532392e32303420322e3139372e35396c372e38383420342e353961342e353220342e353220302030203120312e35383920312e363136632e3338342e3636352e35393420312e3431382e36303820322e31383776362e3033326c362e38352d342e303635762d362e303332632e3031332d2e3737352d2e3138352d312e3533382d2e3537322d322e32303861342e323520342e32352030203020302d312e3632352d312e3539354c34312e3435362032342e3539632d2e3636382d2e3338372d312e3432362d2e35392d322e3139372d2e3539732d312e3532392e3230342d322e3139372e35396c2d31342e38363420382e36353561342e323520342e32352030203020302d312e36323520312e353935632d2e3338372e36372d2e35383520312e3433342d2e35373220322e3230387631372e343431632d2e3031332e3737352e31383520312e3533382e35373220322e32303861342e323520342e323520302030203020312e36323520312e3539356c31342e38363420382e363535632e3636382e33383720312e3432362e353920322e3139372e353973312e3532392d2e32303420322e3139372d2e35396c31302e3038312d352e39303120362e38352d342e3036352031302e3038312d352e393031632e3636382d2e33383720312e3432362d2e353920322e3139372d2e353973312e3532392e32303420322e3139372e35396c372e38383420342e353961342e353220342e353220302030203120312e35383920312e363136632e3338342e3636352e35393420312e3431382e36303820322e31383776392e333131632e3031332e3737352d2e31383520312e3533382d2e35373220322e32303861342e323520342e32352030203020312d312e36323520312e3539356c2d372e38383420342e373231632d2e3636382e3338372d312e3432362e35392d322e3139372e3539732d312e3532392d2e3230342d322e3139372d2e35396c2d372e3838342d342e353961342e353220342e35322030203020312d312e3538392d312e363136632d2e3338352d2e3636352d2e3539342d312e3431382d2e3630382d322e313837762d362e3033326c2d362e383520342e30363576362e303332632d2e3031332e3737352e31383520312e3533382e35373220322e32303861342e323520342e323520302030203020312e36323520312e3539356c31342e38363420382e363535632e3636382e33383720312e3432362e353920322e3139372e353973312e3532392d2e32303420322e3139372d2e35396c31342e3836342d382e363535632e3635372d2e33393420312e3230342d2e393520312e3538392d312e363136732e3539342d312e3431382e3630392d322e3138375635352e353338632e3031332d2e3737352d2e3138352d312e3533382d2e3537322d322e32303861342e323520342e32352030203020302d312e3632352d312e3539356c2d31342e3939332d382e3738367a222066696c6c3d2223666666222f3e3c646566733e3c6c696e6561724772616469656e742069643d2242222078313d2230222079313d2230222078323d22323730222079323d2232373022206772616469656e74556e6974733d227573657253706163654f6e557365223e3c73746f702073746f702d636f6c6f723d2223636235656565222f3e3c73746f70206f66667365743d2231222073746f702d636f6c6f723d2223306364376534222073746f702d6f7061636974793d222e3939222f3e3c2f6c696e6561724772616469656e743e3c2f646566733e3c7465787420783d2233322e352220793d223233312220666f6e742d73697a653d223237222066696c6c3d2223666666222066696c7465723d2275726c282341292220666f6e742d66616d696c793d22506c7573204a616b617274612053616e732c44656a6156752053616e732c4e6f746f20436f6c6f7220456d6f6a692c4170706c6520436f6c6f7220456d6f6a692c73616e732d73657269662220666f6e742d7765696768743d22626f6c64223e",
  "linkReferences": {},
  "deployedLinkReferences": {}
}